:020000040800F2
:10000000A007002089010008EF140008F111000882
:10001000ED1400088F0200080F180008000000000F
:10002000000000000000000000000000F3140008C1
:100030009102000800000000F1140008F514000807
:10004000A3010008A3010008A3010008A301000800
:10005000A3010008A3010008A3010008A3010008F0
:10006000A3010008A3010008A3010008A3010008E0
:10007000A3010008A3010008A3010008A3010008D0
:10008000A3010008A3010008A3010008A3010008C0
:10009000A3010008A3010008A3010008A3010008B0
:1000A000A3010008A3010008A3010008A3010008A0
:1000B000A3010008A3010008A3010008A301000890
:1000C000A3010008A3010008A3010008A301000880
:1000D000A3010008A3010008A3010008A301000870
:1000E000A3010008A3010008A301000800F002F822
:1000F00000F03AF80AA090E8000C82448344AAF188
:100100000107DA4501D100F02FF8AFF2090EBAE885
:100110000F0013F0010F18BFFB1A43F0010318473B
:100120005817000078170000103A24BF78C878C12B
:10013000FAD8520724BF30C830C144BF04680C60ED
:10014000704700000023002400250026103A28BF35
:1001500078C1FBD8520728BF30C148BF0B60704739
:100160001FB51FBD10B510BD00F058F81146FFF7C0
:10017000F7FF01F05DFB00F076F803B4FFF7F2FF44
:1001800003BC00F07DF8000009488047094800479B
:10019000FEE7FEE7FEE7FEE7FEE7FEE7FEE7FEE737
:1001A000FEE7FEE704480549054A064B7047000094
:1001B00057150008ED000008A0010020A00700204E
:1001C000A0030020A00300204FF0000200B513465A
:1001D00094469646203922BFA0E80C50A0E80C5067
:1001E000B1F12001BFF4F7AF090728BFA0E80C5018
:1001F00048BF0CC05DF804EB890028BF40F8042B11
:1002000008BF704748BF20F8022B11F0804F18BF7D
:1002100000F8012B7047704770477047754600F033
:100220002BF8AE4605006946534620F00700854688
:1002300018B020B5FFF7B6FFBDE820404FF000062C
:100240004FF000074FF000084FF0000B21F00701BE
:10025000AC46ACE8C009ACE8C009ACE8C009ACE801
:10026000C0098D46704710B50446AFF300802046A4
:10027000BDE81040FFF781BF004870473C010020F7
:1002800001491820ABBEFEE7260002007047FEE7DA
:10029000704772B6FEE700002DE9F84FDFF8B8911D
:1002A0000024A9F1040B23460F2709F1040AABF13E
:1002B000040EC9E00125A5402A40AA427DD1674E1F
:1002C000D1F804C0ACEB0608B44532D014DCBCF164
:1002D000030F3AD009DCBCF1000F2AD0BCF1010FAA
:1002E0001CD0BCF1020F31D11DE0BCF1110F17D0B1
:1002F000BCF1120F2AD119E0B8F5881F19D006DC1D
:10030000B8F5803F15D0B8F5801F1FD111E0B8F5C2
:10031000001F0ED0B8F5041F18D10AE0CB6815E015
:10032000CB681B1D12E0CB6808330FE0CB680C33A1
:100330000CE08B682BB1012B4FF0080303D0456113
:1003400004E0042302E0056100E00023FF2A01D855
:10035000064601E000F104064FEA840501D9A5F143
:100360002005D6F8008007FA05FC28EA0C0803FAF5
:1003700005F548EA0508C6F800804D68ED0062D52D
:10038000374DAE6946F00106AE61AD6924F0030653
:1003900005F001050095334D06EB050CDCF808501F
:1003A000A607360F07FA06F825EA0805DFF8B88031
:1003B000404503D14FF0000817E044E0DFF8AC807F
:1003C000404502D14FF001080FE0DFF8A48040451E
:1003D00002D14FF0020808E0DFF89880404502D1D2
:1003E0004FF0030801E04FF0040808FA06F848EA65
:1003F0000508CCF808804D68D9F80060ED024D463C
:1004000001D5164300E096432E604D68DAF800608F
:10041000AD02554601D5164300E096432E604D6867
:10042000DBF80060AD035D4601D5164300E096435E
:100430002E604D68DEF80060ED03754601D5164369
:1004400000E096432E60641C0D682A46E5407FF468
:1004500031AFBDE8F88F0000080401400000111022
:10046000001002400000014000080140000C014063
:1004700000100140001401400AB1016170470904F5
:10048000FBE7000001488068704700000000002082
:1004900070B5040025D094F83D00002520B984F8FB
:1004A0003C50204600F0B8F8242084F83D00206835
:1004B000016821F0010101602068016841F40041F8
:1004C00001602068016821F40041016000F0F2F948
:1004D0004D4A6168914201D84C4900E04C4988423C
:1004E00001D2012070BD4B492368B0FBF1F15E6879
:1004F00026F03F060E435E606368934206D94FF4D0
:10050000967359434FF47A73B1FBF3F12368491C96
:100510001E6A26F03F06314319626168914210D885
:100520004900401EB0FBF1F2521CC2F30B02042A38
:1005300001D2042022E0B0FBF1F0401CC0F30B001C
:100540001CE0A268F2B301EBC10303EB0116431EEA
:10055000B3FBF6F35B1C43F480431B0549D092B315
:1005600001EBC10202EB0111401EB0FBF1F0401C97
:10057000C0F30B0040F4804040F400402168CA6999
:100580004CF6FF739A431043C861D4E90710014346
:100590002068026822F0C00211430160D4E903011F
:1005A00001432068826848F2FF339A431143816017
:1005B000D4E9050108432168CA6822F0FF0210430C
:1005C000C86001E00EE016E02068016841F001011A
:1005D00001602564202084F83D00256384F83E50A6
:1005E000002070BD01EB4106431EB3FBF6F35B1C1C
:1005F000B3E70120C2E701EB4101401EB0FBF1F07F
:10060000401CC0F30B00B7E7A086010080841E00E9
:1006100000093D0040420F0010B586B00021009156
:1006200001910291039100680F4988421AD10F4C41
:10063000A06940F00800A061A069694600F00800C8
:100640000490C020009012200190032003900848DD
:10065000FFF722FEE06940F40010E061E06900F479
:100660000010049006B010BD00540040001002407D
:10067000000C014002488168027811448160704793
:1006800000000020074810B5016841F0100101602A
:10069000032000F067F80F2000F006F800F024F8BF
:1006A000002010BD0020024070B50D4D04464FF4EF
:1006B0007A712878B1FBF0F00A490968B1FBF0F0D3
:1006C00000F0BEFA48B9102C07D200222146501E75
:1006D00000F028F800206C6070BD012070BD0000A3
:1006E000000000200C0000200C4808B5816941F092
:1006F00001018161816901F001010091C16941F04D
:100700008051C161C06900F0805000900448416888
:1007100021F0E06141F00071416008BD001002402D
:1007200000000140F0B40E4B1B680C46C3F30223DB
:10073000C3F10705042D00D90425191D072901D28D
:10074000002300E0DB1E012606FA05F1491E2140C8
:1007500099409E40761E16403143F0BC01F058B8D7
:100760000CED00E0064900F0070208684FF6FF03B1
:10077000184040EA0220034A104308607047000016
:100780000CED00E00000FA052DE9F0470F460500EA
:1007900061D0434E306800F00700B84209D230689B
:1007A00020F0070038433060306800F00700B8429E
:1007B00051D128683B4C810712D5400703D56068AA
:1007C00040F4E06060602878000703D5606840F47A
:1007D000605060606068A96820F0F00008436060C5
:1007E0002878C00728D06868012810D0216802281E
:1007F00010D0890700292EDA616821F00301014336
:100800006160FFF73FFE804641F288390DE02168C4
:100810008903EFE78901EDE7FFF734FEA0EB08015C
:10082000494502D90320BDE8F0876068696800F097
:100830000C00B0EB810FEFD1306800F00700B84238
:100840000BD9306820F0070038433060306800F082
:100850000700B84201D00120E5E72878400705D518
:100860006068E96820F4E060084360602878000769
:1008700006D56068296920F4605040EAC1006060D4
:1008800000F028F86168084AC1F30311515CC840C0
:100890000649086006480068FFF706FF0020C2E727
:1008A0000020024000100240601800080C000020E8
:1008B000040000200448054900684968044AC1F35F
:1008C0000221515CC84070470C000020001002401B
:1008D000701800080E4A51680E4801F00C03042BF2
:1008E00011D0082B0FD10C48C1F38343C903C05C5E
:1008F0000AD55168084AC1F34041921E515C054A2D
:100900005043B0FBF1F07047044948437047000082
:100910000010024000127A005018000800093D0043
:100920002DE9F84F040070D02078C04DC00749D0A1
:100930006868C0F38100012807D06868C0F38100AF
:10094000022809D16868C00306D52868800339D514
:1009500060680028E7D035E06068B0F5803F0BD0D4
:1009600010B1B0F5A02F11D0286820F48030286095
:10097000286820F4802002E0286840F48030286055
:10098000606890B1FFF77EFD06460AE0286840F4F3
:1009900080202860F0E700BFFFF774FD801B64280B
:1009A00073D828688003F7D50CE0FFF76BFD064687
:1009B00005E000BFFFF766FD801B6428F0D82868BB
:1009C0008003F7D420789A4E80074FF001094FF04A
:1009D000000839D5686810F00C0F07D06868C0F3BC
:1009E0008100022809D16868C00306D428688007FE
:1009F00014D52069012808D110E02069B0B1C6F8EB
:100A00000090FFF73FFD074605E00AE1FFF73AFDDA
:100A1000C01B0228C4D828688007F7D528686169F8
:100A200020F0F80040EAC10028600DE0C6F8008020
:100A3000FFF728FD074604E0FFF724FDC01B02284E
:100A400023D828688007F7D4207800072CD5794868
:100A5000A169D9B1C0F80090FFF714FD074604E082
:100A6000FFF710FDC01B02280FD8686A8007F7D572
:100A700071484FF4FA510068B0FBF1F0009000BFEC
:100A80000098411E0091FAD20EE080E0C0F800808C
:100A9000FFF7F8FC074604E0FFF7F4FCC01B022850
:100AA00075D8686A8007F7D42078400760D5E86970
:100AB0000027C00008D4E86940F08050E861E86988
:100AC000012700F0805000905C480168C90513D4EC
:100AD0000168834641F480710160FFF7D3FC8246D0
:100AE00006E000BFFFF7CEFCA0EB0A0064284ED85A
:100AF000DBF80000C005F5D5E06801280AD008B190
:100B0000052813D0286A20F001002862286A20F006
:100B1000040002E0286A40F001002862E06841F227
:100B2000883B98B1FFF7AEFC82460BE0286A40F0A4
:100B300004002862EEE700BFFFF7A4FCA0EB0A0167
:100B400059455AD8286A8007F6D50CE0FFF79AFC79
:100B5000824605E0FFF796FCA0EB0A0159454CD808
:100B6000286A8007F6D41FB1E86920F08050E86158
:100B7000E06988B36968C1F38101022944D0022881
:100B8000C6F8608004D0FFF77DFC044638E034E00E
:100B9000FFF778FC074604E0FFF774FCC01B02284F
:100BA0002BD828688001F7D4206AB0F5803F05D1A2
:100BB0006868A16820F4003008436860D4E908013F
:100BC0000843696821F4741108436860C6F86090AE
:100BD000FFF758FC044606E025E000BFFFF752FC93
:100BE000001B022809D828688001F7D51BE000BF48
:100BF000FFF748FC001B022802D90320BDE8F88F4C
:100C000028688001F4D40EE00128F7D06868226AD1
:100C100000F48031914204D1616A00F4701088427E
:100C200001D00120EAE70020E8E7000000100240C0
:100C300000004242800442420C000020007000404C
:100C400010B5401EB0F1807F01D3012010BD4FF0E0
:100C5000E02460610F21601700F0DAFD0020A06140
:100C600007202061002010BD10B590F83C20012A1B
:100C700022D0012280F83C20CA688C6822F440729D
:100C800022434C6822F4806222430C6822F4006202
:100C900022430C6922F4805222434C6922F4005210
:100CA0002243C969002322F480420A4301684A644E
:100CB00080F83C30002010BD022010BD70B590F8C7
:100CC0003C20012A26D0012480F83C40022280F8F2
:100CD0003D2003685A689D6822F070060A68324316
:100CE0005A600D4B02689A4208D0B2F1804F05D08D
:100CF0000A4B9A4202D00A4B9A4204D1496825F025
:100D000080031943916080F83D40002180F83C1039
:100D1000084670BD022070BD002C01400004004058
:100D20000008004010B5040003D094F83D0010B155
:100D300007E0012010BD002084F83C00204600F0B0
:100D40001FF8022084F83D00211D206800F004FCFB
:100D5000012084F8460084F83E0084F83F0084F8BF
:100D6000400084F8410084F8420084F8430084F88D
:100D7000440084F8450084F83D00002010BD0000C8
:100D800000B585B0002100910191029103911A4AAA
:100D900001681A48914207D1816941F4006181617B
:100DA000806900F4006024E0B1F1804F1AD0144A49
:100DB000914215D1C16941F00201C161C16901F0DF
:100DC00002010491816941F00401816180696946F1
:100DD00000F004000490402000900A48FFF75CFAFD
:100DE00005B000BDC16941F00101C161C06900F0F9
:100DF00001000490F4E70000002C014000100240C4
:100E0000000400400008014070B5044690F83C0022
:100E10000025012817D0012684F83C60022084F8C0
:100E20003D002068826822F0770222F47F428260CF
:100E30000868502838D00DDC20284FD005DC90B34E
:100E4000102811D14AE0022070BD302846D0402839
:100E50000AD13BE060282FD070280DD0B0F5805F1C
:100E600003D0B0F5005F12D0012584F83D6000206A
:100E700084F83C00284670BDCB68D1E90121206888
:100E800000F0A6FB2068816841F0770109E0CB689B
:100E9000D1E90121206800F09BFB2068816841F4C2
:100EA00080418160E1E719E0CA684968206800F084
:100EB00043FC5021206806E0CA684968206800F0B9
:100EC00079FC6021206800F08DFBCEE7CA68496894
:100ED000206800F031FC40212068F4E722680146D8
:100EE0001046F0E72DE9F041054690F83C00002659
:100EF0000C46012810D0012085F83C0072B1042A6C
:100F00001CD0082A2CD00C2A50D00126002085F8AD
:100F10003C003046BDE8F0810220FBE7D4E9001236
:100F2000E368286800F01AFC2868816921F00C0148
:100F3000816128688169A26811430FE0D4E9001239
:100F4000E368286800F048FC2868816921F4406162
:100F5000816128688169A26841EA02218161D5E73F
:100F60002868D4E9002C277B036A016A21F4807188
:100F70000162C16923F4007321F0030141EA0C010D
:100F800021F0F00C39074FF400774CEA116107EAC1
:100F900002221A43C16102622868C16921F00C0172
:100FA000C1612868C169A26811432BE02868D4E9AF
:100FB0000021E768036AD0F820C02CF4805CC0F8F8
:100FC00020C0D0F81CC023F400532CF4407C4CEA21
:100FD000012121F4704C4FF6FF7101EA07314FF403
:100FE000005741EA0C0107EA02321A43C16102626A
:100FF0002868C16921F44061C1612868C169A2689B
:1010000041EA0221C16181E710B5040003D094F8E0
:101010003D0010B107E0012010BD002084F83C0025
:10102000204600F01EF8022084F83D00211D2068B3
:1010300000F092FA012084F8460084F83E0084F81B
:101040003F0084F8400084F8410084F8420084F8AE
:10105000430084F8440084F8450084F83D000020F3
:1010600010BD704710B586B000210091019102912A
:101070000391124C0368124902221248A34209D17B
:101080008B6943F004038B61896901F004010491C9
:1010900081150BE0B3F1804F0ED18B6943F004034F
:1010A0008B61896901F0040104910621CDE90012E8
:1010B00069460392FFF7F0F806B010BD002C01401E
:1010C000001002400008014070B5044690F83C0052
:1010D00000260D4601280FD0012084F83C006AB19B
:1010E000042A1DD0082A2FD00C2A3FD00126002028
:1010F00084F83C00304670BD022070BD206800F0CE
:1011000079FA2068816941F008018161206881696C
:1011100021F004018161206881692A69114311E08D
:10112000206800F08FFA2068816941F400618161D4
:101130002068816921F480618161206881692A6960
:1011400041EA02218161D2E7206800F0A7FA206815
:10115000C16941F00801C1612068C16921F0040141
:10116000C1612068C1692A69114311E0206800F05B
:10117000C1FA2068C16941F40061C1612068C16998
:1011800021F48061C1612068C1692A6941EA0221B4
:10119000C161ACE710B5040003D094F83D0010B174
:1011A00007E0012010BD002084F83C00204600F03C
:1011B0001EF8022084F83D00211D206800F0CCF9C3
:1011C000012084F8460084F83E0084F83F0084F84B
:1011D000400084F8410084F8420084F8430084F819
:1011E000440084F8450084F83D00002010BD70479D
:1011F000FEE700002DE9F04385B00024204800946C
:10120000019402940394816941F020018161816914
:1012100001F020010491816941F00401816181693B
:1012200001F004010491816941F008018161806944
:10123000DFF8508000F008000490002201214046B1
:10124000FFF71AF9DFF840904FF470470022394653
:101250004846FFF711F90125022603960095CDE9CE
:10126000015469464046FFF717F800970396CDE909
:10127000015469464846FFF70FF805B0BDE8F08312
:101280000010024000080140000C01400D4810B55C
:101290000B4901600C49416000214FF4804281609C
:1012A000C0E9031241618161C1610162FFF7F0F899
:1012B000002803D0BDE81040FEF7EBBF10BD0000D2
:1012C0000054004010000020801A060010B596B0AF
:1012D00000240F9410941194129413941C2108A8C4
:1012E0001494FEF771FF20216846FEF76DFF2A482F
:1012F000284901604721C0E9011444F61F61C0E993
:1013000003148021C0E90541FFF70CFD08B1FEF789
:10131000C0FF4FF480500F900FA91F48FFF774FDD6
:1013200008B1FEF7B6FF1C48FFF734FF08B1FEF71F
:10133000B0FF139413A918481494FFF7BFFC08B129
:10134000FEF7A7FF6020089040F2DC50CDE90904C9
:101350000B940C940D94002208A90F480E94FFF7EB
:10136000B3FE08B1FEF795FF00944FF40050CDE9AD
:101370000440029401940394694607480794FFF7D8
:1013800073FC08B1FEF785FF0348FFF76BFE16B04C
:1013900010BD0000002C01406400002010B58EB08C
:1013A00000240794089409940A940B941C2168461D
:1013B0000C94FEF709FF21484FF08041016047215E
:1013C000C0E90114C721C0E903148461FFF7AAFC36
:1013D00008B1FEF75EFF4FF48050079007A9174849
:1013E000FFF712FD08B1FEF754FF1448FFF7D2FED5
:1013F00008B1FEF74EFF0B940BA910480C94FFF7B1
:101400005DFC08B1FEF745FF6020CDE900040294C1
:101410000422694609480494FFF756FE08B1FEF716
:1014200038FF082269460548FFF74EFE08B1FEF76F
:1014300030FF0248FFF716FE0EB010BDAC000020D2
:1014400010B58AB0002428480494059406940794A3
:101450000894099400940194029422490394016031
:101460004721C0E901144FF6FF71C0E90314802140
:101470008161FFF757FC08B1FEF70BFF4FF4805076
:10148000049004A91848FFF7BFFC08B1FEF701FF5C
:101490001548FFF7B9FD08B1FEF7FBFE089408A94F
:1014A00011480994FFF70AFC08B1FEF7F2FE01208B
:1014B000CDE900400294002269460B480394FFF7EF
:1014C00011FD08B1FEF7E5FE022000900190042214
:1014D00069460548FFF706FD002801D0FEF7D9FE52
:1014E0000AB010BD00040040F4000020FEE7FEE753
:1014F00070477047FFF7BEB830B58FB028216846F7
:10150000FEF762FE14210AA8FEF75EFE0121080420
:10151000CDE900100024029402250491CDE9075082
:101520004FF4E01009906846FFF7FAF908B172B677
:10153000FEE70F20CDE90A054FF48060CDE90C40AD
:1015400002210AA80E94FFF71FF9002801D072B6F5
:10155000FEE70FB030BD7047F0B50268194B1A4C6A
:101560001A4D4FF08047984205D0B84203D0A042B0
:1015700001D0A84203D122F070064A683243984253
:1015800005D0B84203D0A04201D0A84203D122F432
:101590004074CA6822434C6922F0800222430260F0
:1015A0008A68C2620A688262984201D1096901634D
:1015B000012141610169C90703D0016921F00101DD
:1015C0000161F0BD002C0140000400400008004013
:1015D00010B5846842EA032224F47F440A4322437C
:1015E000826010BD826822F070020A4342F0070157
:1015F0008160704730B5036A026A22F0010202621C
:101600004268846924F073050C682C4323F00205BA
:101610008B682B430A4DA8420BD123F00805CB68F9
:1016200022F440722B434D6923F0040315438A6969
:101630002A434260846149684163036230BD00000F
:10164000002C014030B5026A036A23F010030362E4
:10165000436884690D6824F4E64444EA05248D68EF
:1016600022F0200242EA05120B4DA8420ED1CD68AD
:1016700022F0800242EA05124D6923F4406343EAF6
:1016800085038D6922F0400243EA8503436084614B
:1016900049688163026230BD002C014030B5036AA5
:1016A000026A22F4807202624268C46923F4007301
:1016B00024F073050C682C438D6843EA05230C4D18
:1016C000A8420ED1CD6823F4006343EA05234D6997
:1016D00022F4405242EA05128D6923F4806342EA03
:1016E00005124260C4614968C163036230BD0000F5
:1016F000002C014030B5046A026A22F48052026272
:101700004268C3690D6823F4E64343EA05238D6804
:1017100024F4005444EA0534064DA84204D14D692E
:1017200022F4804242EA85124260C3614968016442
:10173000046230BD002C014010B5036A046A24F035
:1017400001040462846924F0F00444EA021423F0E2
:101750000A020A438461026210BD000070B5056A86
:10176000046A24F00104046284690F4EB04208D078
:10177000B0F1804F05D00D4EB04202D00C4EB042B9
:1017800003D124F00304144301E044F001041A07D8
:1017900024F0F00444EA126225F00A0301F00A0181
:1017A00019438261016270BD002C014000040040B9
:1017B0000008004010B5036A046A24F010040462B3
:1017C000846923F0A00324F4704444EA023243EA1B
:1017D00001118261016210BD30B5046A056A25F00D
:1017E00010050562856925F4407545EA022222F458
:1017F00070454FF6FF7202EA033224F0A0032A4339
:10180000A02404EA011119438261016230BDFEE7A0
:101810000907090E002804DB00F1E02080F800141D
:10182000704700F00F0000F1E02080F8141D7047B1
:10183000FEF728FFFFF760FEFFF7DCFCFFF726FD51
:10184000FFF744FDFFF7AAFDFFF7FAFDFEE70102EF
:1018500002030405060708090A0B0C0D0E0F1010F1
:101860000000000000000000010203040607080950
:101870000000000001020304981800080000002086
:101880001000000028010008A8180008100000201F
:101890009007000044010008010000001000000053
:0818A0000000000000127A00B4
:04000005080000ED02
:00000001FF
